:020000040800F2
:100000000000022089190008550C0008570C000850
:10001000590C00085B0C00085D0C00080000000093
:100020000000000000000000000000005F0C00085D
:10003000610C000800000000630C0008650C00085B
:10004000D9190008D9190008D9190008D9190008C8
:10005000D9190008D9190008D9190008D9190008B8
:10006000D9190008D9190008D9190008D9190008A8
:10007000D9190008D9190008D9190008D919000898
:10008000D9190008D9190008D91900080000000082
:10009000000000000000000000000000D919000866
:1000A000D9190008D9190008D9190008D919000868
:1000B000D9190008D9190008D9190008D919000858
:1000C000D9190008D9190008D9190008D919000848
:1000D000D9190008D9190008D91900080000000032
:1000E000D9190008D9190008D91900080000000022
:1000F000000000000000000000000000D919000806
:1001000000000000D9190008D9190008D919000801
:1001100000000000000000000000000000000000DF
:10012000D9190008D9190008D9190008D9190008E7
:10013000D9190008000000000000000000000000C5
:10014000000000000000000000000000D9190008B5
:10015000D9190008D9190008D9190008D9190008B7
:10016000D9190008D919000800000000000000009B
:10017000000000000000000000000000000000007F
:1001800000000000D9190008000000000000000075
:08019000D9190008D919000873
:1001980010B5054C237833B9044B13B10448AFF3B9
:1001A80000800123237010BD0C0000200000000017
:1001B800341A000808B5034B1BB103490348AFF3D1
:1001C800008008BD0000000010000020341A00085C
:1001D80053B94AB9002908BF00281CBF4FF0FF31A6
:1001E8004FF0FF3000F072B9ADF1080C6DE904CEA4
:1001F80000F006F8DDF804E0DDE9022304B07047FA
:100208002DE9F047089E04468846002B4BD18A42C8
:10021800154667D9B2FA82F24AB1C2F1200701FA4B
:1002280002F320FA07F7954047EA030894404FEA9B
:10023800154E230CB8FBFEF71FFA85FC0EFB17883A
:1002480043EA084307FB0CF1994209D9EB1807F177
:10025800FF3080F01B81994240F21881023F2B4405
:100268005B1AA4B2B3FBFEF00EFB103344EA03445E
:1002780000FB0CFCA44509D92C1900F1FF3380F0D0
:100288000781A44540F2048102382C4440EA074023
:10029800A4EB0C0400271EB1D4400023C6E9004398
:1002A8003946BDE8F0878B4209D9002E00F0EB8073
:1002B8000027C6E9000138463946BDE8F087B3FA99
:1002C80083F7002F47D18B4202D3824200F2FA8093
:1002D800841A61EB030301209846002EE0D0C6E99A
:1002E8000048DDE702B9FFDEB2FA82F2002A40F0E8
:1002F8008F80491B4FEA154E1FFA85F80127B1FB7D
:10030800FEFC230C0EFB1C1143EA014308FB0CF115
:10031800994207D9EB180CF1FF3002D2994200F24A
:10032800CD808446591AA3B2B1FBFEF00EFB10141F
:1003380043EA044408FB00F8A04507D92C1900F14A
:10034800FF3302D2A04500F2B6801846A4EB080499
:1003580040EA0C409FE7C7F1200CBB4022FA0CFE94
:100368004EEA030E01FA07F420FA0CF521FA0CF311
:100378004FEA1E482543B3FBF8F92C0C08FB193348
:100388001FFA8EFA44EA034309FB0AF49C4202FA74
:1003980007F200FA07F10BD91EEB030309F1FF304E
:1003A80080F087809C4240F28480A9F1020973445E
:1003B8001B1BADB2B3FBF8F008FB103345EA03444E
:1003C80000FB0AFAA24508D91EEB040400F1FF332A
:1003D8006BD2A24569D90238744440EA0940A0FBAF
:1003E8000289A4EB0A044C45C2464B4654D351D06B
:1003F800002E69D0B1EB0A0564EB030404FA0CFC87
:10040800FD40FC404CEA0505C6E90054002747E7D3
:10041800C2F1200320FA03F7954001FA02F021FA0D
:1004280003F34FEA154E3843010CB3FBFEF71FFAEE
:1004380085F80EFB173341EA034107FB08F38B42AB
:1004480004FA02F407D9691807F1FF3C2FD28B424E
:100458002DD9023F2944CB1A81B2B3FBFEF00EFB23
:10046800103341EA034100FB08F38B4207D96918AE
:1004780000F1FF3C17D28B4215D902382944C91A1A
:1004880040EA07473BE73746304609E70746E7E6CD
:100498001846FBE64145ABD2B8EB020A69EB0E02FF
:1004A80001381346A4E76046E9E7184695E767462A
:1004B800D1E781467CE702382C4447E7ACF1020CCF
:1004C8002B442FE7384608E73746E9E6704700BF70
:1004D80030B587B0002401940294039404940594E1
:1004E80000940F4B1A6B42F002021A631B6B03F065
:1004F80002030093009B0B4D22464FF450412846BF
:1005080000F052FD4FF450430193012302930394EA
:10051800049401A9284600F06FFC07B030BD00BF65
:10052800003802400004024072B6FEE700B595B0FC
:100538003022002108A801F071FA002303930493E4
:100548000593069307930193194A116C41F0805162
:100558001164126C02F080520192019A0293154ABA
:10056800116841F440411160126802F4404202925D
:10057800029A0222089201220B9210220C920E93E8
:1005880008A800F017FD78B90F2303930021049100
:1005980005914FF4A0530693079103A800F072FF4A
:1005A80020B915B05DF804FBFFF7BEFFFFF7BCFFED
:1005B800003802400070004008B500F081FBFFF7EA
:1005C800B5FFFFF785FF00F017F800F0B3F900203A
:1005D80000F00FFB4FF4FC63054A0021012000F0F6
:1005E800E1FA1F23034A0121084600F0DBFAFEE77F
:1005F800601F0008681F000808B50E480E4B03600E
:100608004FF48273436000238360C36003614361D6
:100618004FF4007282612022C261036243628362E6
:100628000A23C36201F07AF800B908BDFFF77CFF1E
:10063800FBE700BF280000200030014000B589B06A
:100648000023039304930593069307930268154BBD
:100658009A4202D009B05DF804FB0021019103F52C
:1006680084335A6C42F480525A645A6C02F48052B1
:100678000192019A02911A6B42F002021A631B6BF3
:1006880003F002030293029B28230393022304939B
:10069800032306930523079303A9034800F0ACFB43
:1006A800D8E700BF003001400004024000B583B025
:1006B80002A901F8010D01231A46034801F08DF83B
:1006C80003B05DF804FB00BF2800002010B5044605
:1006D80000224FF48041034800F066FC2046FFF7F3
:1006E800E5FF10BD0004024010B5044601224FF496
:1006F8008041034800F058FC2046FFF7D7FF10BDA3
:100708000004024008B50120FFF7E0FF962000F042
:1007180003FB1120FFF7DAFF4FF4FA7000F0FCFA40
:10072800B120FFF7D3FF0120FFF7DEFF2C20FFF7F2
:10073800DBFF2D20FFF7D8FFB220FFF7C7FF01200E
:10074800FFF7D2FF2C20FFF7CFFF2D20FFF7CCFFBC
:10075800B320FFF7BBFF0120FFF7C6FF2C20FFF7F0
:10076800C3FF2D20FFF7C0FF0120FFF7BDFF2C209E
:10077800FFF7BAFF2D20FFF7B7FFB420FFF7A6FF5A
:100788000720FFF7B1FFC020FFF7A0FFA220FFF767
:10079800ABFF0220FFF7A8FF8420FFF7A5FFC120C9
:1007A800FFF794FFC520FFF79FFFC220FFF78EFFDA
:1007B8000A20FFF799FF0020FFF796FFC320FFF7F5
:1007C80085FF8A20FFF790FF2A20FFF78DFFC420BE
:1007D800FFF77CFF8A20FFF787FFEE20FFF784FFF3
:1007E800C520FFF773FF0E20FFF77EFF2020FFF7DD
:1007F8006DFF3620FFF76AFFC020FFF775FF3A202C
:10080800FFF764FF0520FFF76FFF08BD08B52A2032
:10081800FFF75CFF0020FFF767FF0020FFF764FF8A
:100828000020FFF761FF7F20FFF75EFF2B20FFF717
:100838004DFF0020FFF758FF0020FFF755FF00206D
:10084800FFF752FF7F20FFF74FFF08BD08B5E020F4
:10085800FFF73CFF0220FFF747FF1C20FFF744FF8C
:100868000720FFF741FF1220FFF73EFF3720FFF771
:100878003BFF3220FFF738FF2920FFF735FF2D20F7
:10088800FFF732FF2920FFF72FFF2520FFF72CFF66
:100898002B20FFF729FF3920FFF726FF0020FFF75D
:1008A80023FF0120FFF720FF0320FFF71DFF102083
:1008B800FFF71AFFE120FFF709FF0320FFF714FFF6
:1008C8001D20FFF711FF0720FFF70EFF0620FFF797
:1008D8000BFF2E20FFF708FF2C20FFF705FF29202C
:1008E800FFF702FF2D20FFF7FFFE2E20FFF7FCFE8B
:1008F8002E20FFF7F9FE3720FFF7F6FE3F20FFF71F
:10090800F3FE0020FFF7F0FE0020FFF7EDFE0220C7
:10091800FFF7EAFE1020FFF7E7FE1320FFF7D6FEE9
:100928000A2000F0F9F92920FFF7D0FE642000F032
:10093800F3F908BD10B5114C00224FF400412046D0
:1009480000F032FB00224FF48051204600F02CFBCF
:10095800072000F0E1F901224FF48051204600F011
:1009680023FBFFF7CFFEFFF751FFFFF76FFF0122D1
:100978004FF40041204600F017FB10BD0004024070
:10098800F8B507460D4616461C462A20FFF79EFE78
:100998000020FFF7A9FE3846FFF7A6FE0020FFF764
:1009A800A3FE3046FFF7A0FE2B20FFF78FFE0020A6
:1009B800FFF79AFEE81CC0B2FFF796FE0020FFF78B
:1009C80093FEE01CC0B2FFF78FFE2C20FFF77EFEDF
:1009D800F8BD00007F2801D87F2900D97047F8B5F5
:1009E80016460D4604460E4F00224FF40041384685
:1009F80000F0DAFAE0B2E9B24B1C421CDBB2D2B228
:100A0800FFF7BEFFF4B2300AFFF76EFE2046FFF78D
:100A18006BFE01224FF40041384600F0C5FAF8BDDC
:100A2800000402402DE9F843BDF820507F2844D83F
:100A380080460C4617461E467F293ED88318013B40
:100A48007F2B02DDC0F18007BFB2A319013B7F2BCA
:100A580002DDC4F18006B6B2DFF8649000224FF4DC
:100A68000041484600F0A0FA5FFA88F0E1B2C219E6
:100A7800D2B28B19DBB2013B013ADBB2D2B2FFF73B
:100A88007FFF01224FF48041484600F08DFA0BE0C9
:100A9800280AFFF729FEE8B2FFF726FE013CA4B2B8
:100AA800002CF5D1013EB6B20EB13C46F8E7012262
:100AB8004FF40041024800F077FABDE8F88300BF20
:100AC800000402402DE9F04F85B0BDF938B09DF81B
:100AD8003C607F2861DC7F295FDC06EB86040444E8
:100AE800012C5AD401EBC604012C56D49946039222
:100AF8008A468046002744E004EB0A0107EB080019
:100B08001FFA89F289B280B2FFF764FF12E0CB4581
:100B180010D0012E27D0B2B214FB02F1514417FBBA
:100B280002F040441FFA8BF30093134689B280B257
:100B3800FFF778FF6D080134072C21DC15F0010F51
:100B4800E5D0012ED8D0B2B214FB02F1514417FB04
:100B580002F040441FFA89F30093134689B280B229
:100B6800FFF760FFE6E704EB0A0107EB08001FFA4E
:100B78008BF289B280B2FFF72DFFDBE700250AE090
:100B88000137052F09DC052FF8D0039B03EB8303FE
:100B98003B44034AD55C0024CEE705B0BDE8F08F9E
:100BA8004C1A00082DE9F04182B00F291CD80446E0
:100BB8000E461546984600272A78B2B106EB8603FA
:100BC800590004EB440358000123019300230093C8
:100BD800434609B200B2FFF775FF01350134A4B2EC
:100BE800142C02D80137E7E70027384602B0BDE8E1
:100BF800F08100B583B0009080231A460021084692
:100C0800FFF710FF03B05DF804FB000000B583B0E8
:100C1800002100910C4B5A6C42F480425A645A6C81
:100C280002F480420092009A01911A6C42F08052BC
:100C38001A641B6C03F080530193019B072000F09A
:100C48007FF803B05DF804FB00380240FEE7FEE7DA
:100C5800FEE7FEE7FEE770477047704708B500F00B
:100C680049F808BD034AD2F8883043F47003C2F843
:100C78008830704700ED00E010B504460E4B187838
:100C88004FF47A73B3FBF0F30C4A1068B0FBF3F03F
:100C980000F09CF868B90F2C01D901200AE0002265
:100CA80021464FF0FF3000F05DF8034B5C600020F8
:100CB80000E0012010BD00BF04000020000000205B
:100CC80008B50B4B1A6842F400721A601A6842F4AD
:100CD80080621A601A6842F480721A60032000F079
:100CE8002FF80020FFF7C8FFFFF790FF002008BD8E
:100CF800003C0240034A1168034B1B780B44136005
:100D0800704700BF8000002004000020014B1868D5
:100D1800704700BF8000002038B50446FFF7F6FF93
:100D28000546B4F1FF3F02D0044B1B781C44FFF783
:100D3800EDFF401BA042FAD338BD00BF04000020DD
:100D4800074AD36823F4E0631B041B0C000200F479
:100D5800E060184340F0BF6040F40030D060704756
:100D680000ED00E030B4174BDB68C3F30223C3F196
:100D78000704042C28BF04241D1D062D18D9033B85
:100D88004FF0FF3505FA04F421EA0401994005FA09
:100D980003F322EA0303194300280BDB0901C9B254
:100DA80000F1604000F5614080F8001330BC7047E6
:100DB8000023E5E700F00F000901C9B2024B1954FE
:100DC800F4E700BF00ED00E014ED00E00138B0F1F9
:100DD800807F0AD2064B5860064AF02182F8231019
:100DE8000020986007221A6070470120704700BFF2
:100DF80010E000E000ED00E000230F2B00F2CA80B5
:100E0800F0B482B05DE086685F000324BC4026EA47
:100E18000406CC68BC4034438460466826EA02066F
:100E28004C68C4F300129A403243426056E0DC0832
:100E3800083450F8247003F0070296000F22B240DD
:100E480027EA02070A69B2403A4340F8242059E0E9
:100E5800042200E00022B2403A4302344E4E46F8E3
:100E680024204E4A9468EA4302EA04064F6817F4BD
:100E7800801F01D045EA0406484CA660E46802EAEF
:100E880004064F6817F4001F01D045EA0406434CD6
:100E9800E660646802EA04064F6817F4003F01D070
:100EA80045EA04063D4C6660246822404E6816F404
:100EB800803F01D045EA0402384C226001330F2BF1
:100EC80065D801229A400C6804EA0205AA42F5D1C5
:100ED8004C6804F00304013C012C94D94A6802F0E0
:100EE8000302032A09D0C4685E000322B24024EA40
:100EF80002048A68B2402243C2604A6802F00302D0
:100F0800022A94D004685E000322B24024EA020454
:100F18004A6802F00302B240224302604A6812F4AF
:100F2800403FCBD0002201921D4A546C44F48044C7
:100F38005464526C02F480420192019A9C08A61CE7
:100F4800154A52F8267003F0030296000F22B240A9
:100F580027EA0207134A90423FF47CAF02F5806209
:100F680090420ED002F5806290420CD002F5806269
:100F780090420AD002F5806290423FF469AF07229E
:100F880069E7012267E7022265E7032263E702B007
:100F9800F0BC7047704700BF00380140003C01407A
:100FA800003802400000024012B90904816170470C
:100FB80081617047002800F0E98170B582B004466D
:100FC800036813F0010F3BD0A74B9B6803F00C0399
:100FD800042B2CD0A44B9B6803F00C03082B21D0C6
:100FE8006368B3F5803F4FD0B3F5A02F52D09E4B26
:100FF8001A6822F480321A601A6822F480221A6071
:101008006368002B50D0FFF781FE0546964B1B689E
:1010180013F4003F14D1FFF779FE401B6428F5D97B
:101028000320B8E1904B5B6813F4800FD8D08E4B47
:101038001B6813F4003F03D06368002B00F0A881FD
:10104800236813F0020F55D0874B9B6813F00C0FE1
:101058003ED0854B9B6803F00C03082B33D0E36824
:10106800002B68D0814B01221A60FFF74FFE05461E
:101078007D4B1B6813F0020F54D1FFF747FE401B4E
:101088000228F5D9032086E1774A136843F48033B0
:101098001360B5E7744B1A6842F480221A601A6824
:1010A80042F480321A60ABE7FFF730FE05466E4B1C
:1010B8001B6813F4003FC3D0FFF728FE401B6428C9
:1010C800F5D9032067E1684B5B6813F4800FC6D13C
:1010D800654B1B6813F0020F04D0E368012B01D0A5
:1010E800012058E1604A136823F0F803216943EAB4
:1010F800C1031360236813F0080F40D0636963B31A
:101108005B4B01221A60FFF701FE0546564B5B6FE9
:1011180013F0020F33D1FFF7F9FD401B0228F5D970
:10112800032038E1504A136823F0F803216943EAA1
:10113800C1031360DEE74D4B00221A60FFF7E6FD9E
:101148000546494B1B6813F0020FD3D0FFF7DEFDAD
:10115800401B0228F5D903201DE1454B00221A60E7
:10116800FFF7D4FD0546404B5B6F13F0020F06D026
:10117800FFF7CCFD401B0228F5D903200BE12368BB
:1011880013F0040F79D0384B1B6C13F0805F33D108
:1011980000230193344B1A6C42F080521A641B6C82
:1011A80003F080530193019B0125324B1B6813F414
:1011B800807F23D0A368012B34D0052B38D02A4B4D
:1011C8001A6F22F001021A671A6F22F004021A67D6
:1011D800A368002B36D0FFF799FD0646224B1B6FFC
:1011E80013F0020F48D1FFF791FD801B41F28833BD
:1011F8009842F3D90320CEE00025D6E71D4A1368AC
:1012080043F480731360FFF781FD0646194B1B6892
:1012180013F4807FCED1FFF779FD801B0228F5D922
:101228000320B8E0104A136F43F001031367CFE7B8
:101238000D4B1A6F42F004021A671A6F42F001024E
:101248001A67C5E7FFF762FD0646074B1B6F13F0E9
:10125800020F11D0FFF75AFD801B41F288339842E4
:10126800F3D9032097E000BF00380240000047424E
:10127800800E474200700040EDB9A369002B00F0D2
:101288008980484A926802F00C02082A51D0022B41
:1012980017D0454B00221A60FFF738FD0446414B32
:1012A8001B6813F0007F42D0FFF730FD001B0228B7
:1012B800F5D903206FE03B4A136C23F08053136485
:1012C800DBE7394B00221A60FFF720FD0546354B56
:1012D8001B6813F0007F06D0FFF718FD401B02289B
:1012E800F5D9032057E0E369226A1343626A43EAA7
:1012F8008213A26A5208013A43EA0243E26A43EAC5
:101308000263284A5360284B01221A60FFF7FEFC4B
:101318000446244B1B6813F0007F06D1FFF7F6FC48
:10132800001B0228F5D9032035E0002033E0002017
:1013380031E0012B31D01B4B5B6803F48001E2697B
:10134800914201D0012026E003F03F02216A8A423F
:1013580001D001201FE0616A47F6C0721A40B2EB63
:10136800811F01D0012016E003F44031A26A52081F
:10137800013AB1EB024F01D001200CE003F0706399
:10138800E26AB3EB026F0AD0012004E00120704743
:10139800012000E0002002B070BD0120FBE7002022
:1013A800F9E700BF0038024060004742324B9B68B3
:1013B80003F00C03042B5CD0082B01D02F48704796
:1013C8002DE9F04B2C4B5A6802F03F025B6813F48E
:1013D800800F2BD0284B5B68C3F388131E46002769
:1013E8005C010025E41A65EB0705A90141EA94614F
:1013F800A001001B61EB0501CB0043EA5073C40058
:10140800A01943EB07014B0243EAD053440220469C
:1014180019460023FEF7DCFE174B5B68C3F3014354
:1014280001335B00B0FBF3F0BDE8F08B124B5B6857
:10143800C3F388131E4600275C010025E41A65EBF8
:101448000705A90141EA9461A001001B61EB0501B0
:10145800CB0043EA5073C400A01943EB07018B0289
:1014680043EA90538402204619460023FEF7B0FE53
:10147800D2E70348704700BF003802400024F40058
:1014880000127A00002800F09E8070B50446504B88
:101498001B6803F007038B4209D2CBB24C4A137086
:1014A800136803F007038B4201D0012070BD236845
:1014B80013F0020F17D013F0040F04D0454A9368B5
:1014C80043F4E0539360236813F0080F04D0414AB3
:1014D800936843F4604393603E4A936823F0F003B3
:1014E800A068034393600D46236813F0010F32D0C0
:1014F8006368012B21D09A1E012A25D9354A126822
:1015080012F0020F61D033498A6822F003021343B4
:101518008B60FFF7FBFB06462E4B9B6803F00C0322
:101528006268B3EB820F16D0FFF7F0FB801B41F225
:1015380088339842F0D90320B8E7264A126812F493
:10154800003FE0D10120B1E7224A126812F0007F83
:10155800D9D10120AAE71E4B1B6803F00703AB4251
:1015680009D9EAB21A4B1A701B6803F00703AB4299
:1015780001D001209AE7236813F0040F06D0154A1A
:10158800936823F4E053E1680B439360236813F0F6
:10159800080F07D00F4A936823F46043216943EA90
:1015A800C1039360FFF702FF0A4B9B68C3F3031361
:1015B800094AD35CD840094B1860094B1868FFF7F3
:1015C8005BFB002072E70120704701206EE700BF37
:1015D800003C024000380240481F0008000000207C
:1015E800080000202DE9F04383B004460F46164654
:1015F8001D46FFF78BFB0A9B181A00EB0508FFF73F
:1016080085FB81462A4B1B68C3F3CB3308FB03F3E6
:10161800019323689B6837EA03030CBF0123002367
:10162800B34240D0B5F1FF3FF3D0FFF76FFBA0EB1B
:10163800090040450AD2B8F1000F07D0019B0BB949
:101648004FF00008019B013B0193E2E722685368D1
:1016580023F0E00353606368B3F5827F0BD0A36A7D
:10166800B3F5005F14D0012384F85130002384F8C7
:101678005030032018E0A368B3F5004F02D0B3F54B
:10168800806FECD12268136823F040031360E6E70B
:101698002268136823F4005313602268136843F424
:1016A80000531360DFE7002003B0BDE8F08300BFFC
:1016B8000000002030B585B0164C2468164DA5FBF7
:1016C8000434640D4FF47A7505FB04F403944468FC
:1016D800B4F5827F0BD0039BC3B1039B013B0393FB
:1016E80003689B6813F0800FF5D100230FE00B46C9
:1016F8000446009200228021FFF774FF034630B1B0
:10170800636D43F020036365032300E0002318465C
:1017180005B030BD00000020819F5E1600285AD019
:1017280010B50446436A33B94368B3F5827F05D0E0
:101738000023C36102E00023036143610023A36225
:1017480094F85130002B40D0022384F8513022689D
:10175800136823F040031360636803F48273A2687C
:1017680002F404421343E26802F40062134322695C
:1017780002F002021343626902F001021343A269F4
:1017880002F400721343E26902F038021343226A3A
:1017980002F080021343A26A02F400522168134344
:1017A8000B60638B03F00403626A02F01002216885
:1017B80013434B602268D36923F40063D36100208C
:1017C8006065012384F8513010BD84F850302046FC
:1017D800FEF734FFB8E7012070472DE9F04182B0E9
:1017E80090F85040012C00F0C8801D4617468846E6
:1017F8000446012380F85030FFF788FA064694F82B
:101808005130DBB2012B09D00220012384F851307A
:10181800002384F8503002B0BDE8F081B8F1000F21
:1018280000F09D80002F00F09C80032384F8513045
:1018380000236365C4F83080A786E786A363A3877F
:10184800E38763642364A368B3F5004F1CD023685F
:101858001A6812F0400F03D11A6842F040021A6069
:10186800E368B3F5006F1AD063680BB1012F4ED14E
:10187800226B236812781A73236B01332363E38E78
:10188800013B9BB2E38642E02268136823F04003E1
:1018980013602268136843F480431360D7E76368D2
:1018A8000BB1012F15D1226B23681288DA60236BE4
:1018B80002332363E38E013B9BB2E38609E0FFF723
:1018C80025FA801BA84202D3B5F1FF3F4BD1002D6A
:1018D8004BD0E38E9BB2002B2CD023689A6812F071
:1018E800020FECD0226B1288DA60236B0233236379
:1018F800E38E013B9BB2E386EBE7FFF707FA801B19
:10190800A84202D3B5F1FF3F31D1002D31D0E38E8B
:101918009BB27BB123689A6812F0020FEDD0226B5C
:1019280012781A73236B01332363E38E013B9BB256
:10193800E386ECE7324629462046FFF7BBFE08B1AE
:1019480020236365A36833B901932368DA68019299
:101958009B680193019B636D6BB9002055E70120DB
:1019680053E7012051E703204FE703204DE7032009
:101978004BE7032049E7012047E702204BE7000037
:10198800DFF834D00D480E490E4A002302E0D4583F
:10199800C4500433C4188C42F9D30B4A0B4C0023AF
:1019A80001E013600432A242FBD3FFF75BF900F0B9
:1019B80011F8FEF701FE7047000002200000002029
:1019C8000C000020801F00080C000020840000206C
:1019D800FEE7000070B50D4E0D4CA41BA4100025A9
:1019E800A54209D10B4E0C4C00F020F8A41BA41002
:1019F8000025A54205D170BD56F825309847013518
:101A0800EEE756F8253098470135F2E7781F0008C9
:101A1800781F0008781F00087C1F0008024403464E
:101A2800934200D1704703F8011BF9E7F8B500BFEE
:101A3800F8BC08BC9E467047F8B500BFF8BC08BCA7
:041A48009E467047FF
:101A4C0000000000003E5B4F5B3E3E6B4F6B3E1C4C
:101A5C003E7C3E1C183C7E3C181C577D571C1C5E63
:101A6C007F5E1C00183C1800FFE7C3E7FF0018243A
:101A7C001800FFE7DBE7FF30483A060E26297929E4
:101A8C0026407F050507407F05253F5A3CE73C5A19
:101A9C007F3E1C1C08081C1C3E7F14227F22145FF6
:101AAC005F005F5F06097F017F006689956A606051
:101ABC0060606094A2FFA29408047E040810207E4B
:101ACC00201008082A1C08081C2A08081E101010D0
:101ADC00100C1E0C1E0C30383E3830060E3E0E0616
:101AEC00000000000000005F000000070007001469
:101AFC007F147F14242A7F2A122313086462364928
:101B0C005620500008070300001C2241000041220F
:101B1C001C002A1C7F1C2A08083E08080080703014
:101B2C000008080808080000606000201008040283
:101B3C003E5149453E00427F400072494949462189
:101B4C0041494D331814127F1027454545393C4AFD
:101B5C004949314121110907364949493646494914
:101B6C00291E00001400000040340000000814225C
:101B7C0041141414141400412214080201590906CA
:101B8C003E415D594E7C1211127C7F494949363ECB
:101B9C00414141227F4141413E7F494949417F09B1
:101BAC000909013E414151737F0808087F00417FBC
:101BBC0041002040413F017F081422417F404040BA
:101BCC00407F021C027F7F0408107F3E4141413E52
:101BDC007F090909063E4151215E7F0919294626D4
:101BEC004949493203017F01033F4040403F1F20D8
:101BFC0040201F3F4038403F6314081463030478AF
:101C0C0004036159494D43007F41414102040810CE
:101C1C0020004141417F0402010204404040404009
:101C2C00000307080020545478407F284444383877
:101C3C0044444428384444287F38545454180008E9
:101C4C007E090218A4A49C787F0804047800447DC3
:101C5C0040002040403D007F1028440000417F4060
:101C6C00007C047804787C080404783844444438B4
:101C7C00FC1824241818242418FC7C080404084894
:101C8C005454542404043F44243C4040207C1C20E5
:101C9C0040201C3C4030403C44281028444C909040
:101CAC00907C4464544C440008364100000077009A
:101CBC0000004136080002010204023C2623263CA7
:101CCC001EA1A161123A4040207A38545455592132
:101CDC00555579412154547841215554784020541C
:101CEC005579400C1E527212395555555939545468
:101CFC00545939555454580000457C410002457DD7
:101D0C00420001457C40F0292429F0F0282528F0D8
:101D1C007C545545002054547C547C0A097F49322C
:101D2C00494949323248484832324A4848303A41A7
:101D3C0041217A3A42402078009DA0A07D3944444C
:101D4C0044393D4040403D3C24FF2424487E4943D7
:101D5C00662B2FFC2F2BFF0929F620C0887E090348
:101D6C0020545479410000447D413048484A32386F
:101D7C004040227A007A0A0A727D0D19317D26299B
:101D8C00292F28262929292630484D402038080893
:101D9C00080808080808382F10C8ACBA2F102834C7
:101DAC00FA00007B000008142A142222142A1408BA
:101DBC00AA005500AAAA55AA55AA000000FF0010B7
:101DCC001010FF00141414FF001010FF00FF10106F
:101DDC00F010F0141414FC001414F700FF0000FFB2
:101DEC0000FF1414F404FC141417101F10101F100F
:101DFC001F1414141F00101010F0000000001F100E
:101E0C001010101F10101010F010000000FF101018
:101E1C0010101010101010FF10000000FF14000024
:101E2C00FF00FF00001F10170000FC04F41414172F
:101E3C0010171414F404F40000FF00F71414141415
:101E4C00141414F700F7141414171410101F101F87
:101E5C00141414F4141010F010F000001F101F00D4
:101E6C0000001F14000000FC140000F010F0101013
:101E7C00FF10FF141414FF141010101F00000000AA
:101E8C00F010FFFFFFFFFFF0F0F0F0F0FFFFFF009E
:101E9C0000000000FFFF0F0F0F0F0F3844443844B1
:101EAC007C2A2A3E147E02020606027E027E026311
:101EBC00554941633844443C04407E201E200602B0
:101ECC007E020299A5E7A5991C2A492A1C4C72018D
:101EDC00724C304A4D4D303048784830BC625A46CE
:101EEC003D3E494949007E0101017E2A2A2A2A2ABF
:101EFC0044445F444440514A444040444A514000A9
:101F0C0000FF0103E080FF000008086B6B0836122D
:101F1C00362436060F090F060000181800000010B2
:101F2C0010003040FF0101001F01011E00191D1798
:101F3C0012003C3C3C3C0000000000000000000093
:101F4C00000000000102030406070809000000005D
:101F5C00010203044350553D00000000486F6C69BA
:041F6C000000000071
:081F700098E2FF7F0100000070
:041F7800BD0100089F
:041F7C0099010008BF
:0C1F80000024F40001000000100000002C
:04000005080019894D
:00000001FF
